:020000040000FA
:100000000C9462000C948A000C948A000C948A0070
:100010000C948A000C948A000C948A000C948A0038
:100020000C948A000C948A000C948A000C948A0028
:100030000C948A000C948A000C948A000C948A0018
:100040000C945D030C948A000C948A000C948A0032
:100050000C948A000C948A000C948A000C948A00F8
:100060000C948A000C948A000000000024002700F1
:100070002A0000000000250028002B0000000000DE
:1000800023002600290004040404040404040202DA
:100090000202020203030303030301020408102007
:1000A0004080010204081020010204081020000012
:1000B0000008000201000003040700000000000027
:1000C0000000B00411241FBECFEFD8E0DEBFCDBFCB
:1000D00011E0A0E0B1E0E2EFF9E002C005900D927E
:1000E000A036B107D9F721E0A0E6B1E001C01D922A
:1000F000A738B207E1F710E0C2E6D0E004C02197CC
:10010000FE010E94F104C136D107C9F70E94A7037E
:100110000C94F7040C940000833081F028F48130B3
:1001200099F08230A9F008958730A9F08830C9F09D
:100130008430B1F4809180008F7D03C08091800075
:100140008F7780938000089584B58F7784BD08955C
:1001500084B58F7DFBCF8091B0008F778093B00006
:1001600008958091B0008F7DF9CFCF93DF93282F32
:1001700030E0F901E255FF4F8491F901E656FF4F57
:10018000D491F901EA57FF4FC491CC23A1F081111A
:100190000E948C00EC2FF0E0EE0FFF1FE458FF4FA1
:1001A000A591B491EC91ED2381E090E009F480E019
:1001B000DF91CF91089580E090E0FACF1F93CF9325
:1001C000DF93282F30E0F901E255FF4F8491F901C8
:1001D000E656FF4FD491F901EA57FF4FC491CC2363
:1001E000A9F0162F81110E948C00EC2FF0E0EE0F89
:1001F000FF1FEE58FF4FA591B4918FB7F894EC9183
:10020000111108C0D095DE23DC938FBFDF91CF9111
:100210001F910895DE2BF8CFCF93DF9390E0FC0180
:10022000E656FF4F24918A579F4FFC018491882303
:10023000D1F090E0880F991FFC01E859FF4FA5917C
:10024000B491FC01EE58FF4FC591D49161110EC0DD
:100250009FB7F8948C91E22FE0958E238C932881A0
:10026000E223E8839FBFDF91CF9108958FB7F89481
:10027000EC91E22BEC938FBFF6CF3FB7F8948091CF
:100280006B0190916C01A0916D01B0916E0126B54A
:10029000A89B05C02F3F19F00196A11DB11D3FBFBE
:1002A000BA2FA92F982F8827BC01CD01620F711D8D
:1002B000811D911D42E0660F771F881F991F4A9587
:1002C000D1F70895AF92BF92CF92DF92EF92FF9253
:1002D0000F931F93CF93DF936C017B018B01040F6E
:1002E000151FEB015E01AE18BF08C017D10759F00A
:1002F0006991D601ED91FC910190F081E02DC6014C
:100300000995892B79F7C501DF91CF911F910F9145
:10031000FF90EF90DF90CF90BF90AF900895089539
:1003200090E080E008958F929F92AF92BF920F93DA
:100330001F93CF93DF93CDB7DEB7A1970FB6F89495
:10034000DEBF0FBECDBF19A2423008F44AE08E01D5
:100350000F5D1F4F842E912CB12CA12CA50194016F
:100360000E94CF04E62FB901CA01EA3044F5E05DEE
:10037000D801EE938D01232B242B252B79F790E0C8
:1003800080E0109769F0FD0101900020E9F73197B6
:10039000AF014A1B5B0BBD018FE691E00E94620139
:1003A000A1960FB6F894DEBF0FBECDBFDF91CF91FF
:1003B0001F910F91BF90AF909F908F900895E95C2F
:1003C000D7CFFC0101900020E9F73197AF01481B1E
:1003D000590BBC018FE691E00C946201CF93DF933F
:1003E000EC0160E08E810E94DE0061E08E810E945F
:1003F000DE0060E08E810E94DE008BE891E00197D4
:10040000F1F7DF91CF910895CF92DF92EF92FF92B3
:100410000F931F93CF93DF936C017C0187E0E80E6D
:10042000F11CD0E0C0E0062F10E0B8010C2E02C095
:10043000759567950A94E2F76170F70181917F01E4
:100440000E94DE002196C430D10579F7C601DF9104
:10045000CF911F910F91FF90EF90DF90CF900C9470
:10046000EE01CF92DF92EF92FF920F931F93CF9303
:10047000DF93EC01F62E642F8C810E94DE008D81CB
:100480008F3F19F060E00E94DE000F2D10E08F8595
:1004900084FF25C06E0187E0C80ED11CF12CE12C31
:1004A000B8010E2C02C0759567950A94E2F7617049
:1004B000F60181916F010E94DE00FFEFEF1AFF0A43
:1004C00088E0E816F10461F7CE01DF91CF911F912A
:1004D0000F91FF90EF90DF90CF900C94EE01B80158
:1004E00084E0759567958A95E1F7CE010E94040234
:1004F0006F2DCE01DF91CF911F910F91FF90EF9063
:10050000DF90CF900C94040240E0682F8FE691E0DA
:100510000C94310281E00E9484028BE39FE10197F9
:10052000F1F70895CF93DF93613029F090917E0128
:10053000986090937E01609382011092830190E411
:100540009093840180938501805C8093860161E0B3
:10055000809173010E940C01809174018F3F19F00A
:1005600061E00E940C0161E0809175010E940C0124
:10057000CFE6D1E09E012F56314080917E0184FD6F
:100580000BC084E090E021962817390744F461E01D
:100590008E810E940C01EECF88E090E0F4CF8BE3D7
:1005A0009DE00197F1F760E0809173010E94DE0009
:1005B00060E0809175010E94DE00809174018F3FA0
:1005C00019F060E00E94DE0080917E0184FD34C05D
:1005D00063E08FE691E00E940402CBE4D6E4CE0112
:1005E0000197F1F763E08FE691E00E940402219702
:1005F000F1F763E08FE691E00E94040283E592E068
:100600000197F1F762E08FE691E00E940402809189
:100610007E0180620E94840284E080937F018CE0EE
:100620000E9484020E948A0282E08093800186E018
:10063000DF91CF910C94840280620E9484028BE44B
:1006400096E40197F1F780917E0180620E94840216
:1006500083E592E00197F1F780917E0180620E942C
:100660008402D5CF41E00E94310281E090E00895FC
:10067000CF92DF92EF92FF9297FF18C06B017C013F
:1006800041E06DE28FE691E00E9431026627772714
:10069000CB016C197D098E099F094AE00E949301E4
:1006A0000196FF90EF90DF90CF9008954AE0FF9081
:1006B000EF90DF90CF900C9493011F920F920FB6A2
:1006C0000F9211242F933F938F939F93AF93BF93D8
:1006D0008091670190916801A0916901B0916A01D0
:1006E0003091660123E0230F2D3758F50196A11DA7
:1006F000B11D209366018093670190936801A093D8
:100700006901B0936A0180916B0190916C01A09195
:100710006D01B0916E010196A11DB11D80936B0119
:1007200090936C01A0936D01B0936E01BF91AF9156
:100730009F918F913F912F910F900FBE0F901F901F
:10074000189526E8230F0296A11DB11DD2CF7894EB
:1007500084B5826084BD84B5816084BD85B58260C6
:1007600085BD85B5816085BD80916E008160809377
:100770006E001092810080918100826080938100E0
:1007800080918100816080938100809180008160F0
:10079000809380008091B10084608093B10080914B
:1007A000B00081608093B00080917A008460809373
:1007B0007A0080917A00826080937A0080917A003A
:1007C000816080937A0080917A00806880937A00BB
:1007D0001092C10060E082E00E940C0160E083E0C2
:1007E0000E940C0164E084E10E9492028CE091E09E
:1007F0000E94E101E0918201E23008F0ABC0E150DB
:10080000F0E0E159FE4F848980680E9484028EE105
:1008100091E00E94E1010E948A02C0E0D0E082E003
:100820000E94B500892B49F0809164019091650187
:100830000196909365018093640183E00E94B50066
:10084000892B49F080916201909163010196909308
:100850006301809362018091640190916501209110
:10086000620130916301820F931F90936101809325
:1008700060010E948A028DE291E00E94E101609194
:10088000620170916301072E000C880B990B0E9486
:100890003803E0918201E23008F05EC0E150F0E000
:1008A000E159FE4F848980680E9484028DE391E0C3
:1008B0000E94E1016091640170916501072E000CB6
:1008C000880B990B0E943803E0918201E33008F015
:1008D00045C0E150F0E0E159FE4F848980680E94F4
:1008E00084028EE491E00E94E101609160017091C8
:1008F0006101072E000C880B990B0E9438030E949F
:100900003D016B017C0184EF882E99249394A12CE6
:10091000B12C0E943D016C197D098E099F09683E2A
:10092000734081059105A8F321E0821A9108A1087E
:10093000B10888EEC80E83E0D81EE11CF11C8114BA
:100940009104A104B10429F7209709F468CF0E940B
:10095000000065CFE1E054CFE1E0A1CFE2E0BACF03
:10096000EFE6F1E01382128284E091E091838083CC
:1009700084E084838FEF858385E0868386E08783A8
:1009800087E0808788E0818789E0828713861486E4
:1009900015861686178661E080E10C949202A1E22A
:1009A0001A2EAA1BBB1BFD010DC0AA1FBB1FEE1FE9
:1009B000FF1FA217B307E407F50720F0A21BB30B34
:1009C000E40BF50B661F771F881F991F1A9469F7B0
:1009D00060957095809590959B01AC01BD01CF010C
:1009E0000895EE0FFF1F0590F491E02D0994F894FF
:1009F000FFCF000000003203620190018F01576FAA
:100A0000726B696E67206F6620454550524F4D00EE
:100A1000427920536169204B726973686E610042AC
:100A200061642050726F6475637473203A200047CC
:100A30006F6F642050726F6475637473203A200086
:100A4000546F74616C2050726F6475637473203AD4
:020A5000200084
:107E0000112484B714BE81FFF0D085E080938100F7
:107E100082E08093C00088E18093C10086E0809377
:107E2000C20080E18093C4008EE0C9D0259A86E02C
:107E300020E33CEF91E0309385002093840096BBD3
:107E4000B09BFECF1D9AA8958150A9F7CC24DD24C4
:107E500088248394B5E0AB2EA1E19A2EF3E0BF2EE7
:107E6000A2D0813461F49FD0082FAFD0023811F036
:107E7000013811F484E001C083E08DD089C08234E0
:107E800011F484E103C0853419F485E0A6D080C0E4
:107E9000853579F488D0E82EFF2485D0082F10E0AE
:107EA000102F00270E291F29000F111F8ED06801E7
:107EB0006FC0863521F484E090D080E0DECF843638
:107EC00009F040C070D06FD0082F6DD080E0C81688
:107ED00080E7D80618F4F601B7BEE895C0E0D1E017
:107EE00062D089930C17E1F7F0E0CF16F0E7DF06D8
:107EF00018F0F601B7BEE89568D007B600FCFDCFD4
:107F0000A601A0E0B1E02C9130E011968C91119780
:107F100090E0982F8827822B932B1296FA010C0160
:107F200087BEE89511244E5F5F4FF1E0A038BF0790
:107F300051F7F601A7BEE89507B600FCFDCF97BE46
:107F4000E89526C08437B1F42ED02DD0F82E2BD052
:107F50003CD0F601EF2C8F010F5F1F4F84911BD097
:107F6000EA94F801C1F70894C11CD11CFA94CF0C13
:107F7000D11C0EC0853739F428D08EE10CD085E9AC
:107F80000AD08FE07ACF813511F488E018D01DD067
:107F900080E101D065CF982F8091C00085FFFCCF94
:107FA0009093C60008958091C00087FFFCCF809118
:107FB000C00084FD01C0A8958091C6000895E0E648
:107FC000F0E098E1908380830895EDDF803219F02E
:107FD00088E0F5DFFFCF84E1DECF1F93182FE3DFCA
:107FE0001150E9F7F2DF1F91089580E0E8DFEE27F6
:047FF000FF270994CA
:027FFE00040479
:00000001FF
