:100000000C9462000C948A000C948A000C948A0070
:100010000C948A000C948A000C948A000C948A0038
:100020000C948A000C948A000C948A000C948A0028
:100030000C948A000C948A000C948A000C948A0018
:100040000C94E7060C948A000C9457070C94310723
:100050000C948A000C948A000C948A000C948A00F8
:100060000C9489070C948A000000000024002700EB
:100070002A0000000000250028002B0000000000DE
:1000800023002600290004040404040404040202DA
:100090000202020203030303030301020408102007
:1000A0004080010204081020010204081020000012
:1000B0000008000201000003040700000000000027
:1000C0000000A80811241FBECFEFD8E0DEBFCDBFCF
:1000D00011E0A0E0B1E0E8E6F6E102C005900D9283
:1000E000A03EB107D9F723E0A0EEB1E001C01D9218
:1000F000AA36B207E1F710E0C2E6D0E004C02197CB
:10010000FE010E942C0BC136D107C9F70E94FF08DF
:100110000C94320B0C940000833081F028F4813071
:1001200099F08230A9F008958730A9F08830C9F09D
:100130008430B1F4809180008F7D03C08091800075
:100140008F7780938000089584B58F7784BD08955C
:1001500084B58F7DFBCF8091B0008F778093B00006
:1001600008958091B0008F7DF9CFCF93DF93282F32
:1001700030E0F901E255FF4F8491F901E656FF4F57
:10018000D491F901EA57FF4FC491CC23A1F081111A
:100190000E948C00EC2FF0E0EE0FFF1FE458FF4FA1
:1001A000A591B491EC91ED2381E090E009F480E019
:1001B000DF91CF91089580E090E0FACF1F93CF9325
:1001C000DF93282F30E0F901E255FF4F8491F901C8
:1001D000E656FF4FD491F901EA57FF4FC491CC2363
:1001E000A9F0162F81110E948C00EC2FF0E0EE0F89
:1001F000FF1FEE58FF4FA591B4918FB7F894EC9183
:10020000111108C0D095DE23DC938FBFDF91CF9111
:100210001F910895DE2BF8CFCF93DF9390E0FC0180
:10022000E656FF4F24918A579F4FFC018491882303
:10023000D1F090E0880F991FFC01E859FF4FA5917C
:10024000B491FC01EE58FF4FC591D49161110EC0DD
:100250009FB7F8948C91E22FE0958E238C932881A0
:10026000E223E8839FBFDF91CF9108958FB7F89481
:10027000EC91E22BEC938FBFF6CF3FB7F8948091CF
:10028000550290915602A0915702B091580226B59E
:10029000A89B05C02F3F19F00196A11DB11D3FBFBE
:1002A000BA2FA92F982F8827BC01CD01620F711D8D
:1002B000811D911D42E0660F771F881F991F4A9587
:1002C000D1F708958F929F92AF92BF92CF92DF9213
:1002D000EF92FF924B015C010E943D016B017C019A
:1002E0000E943D016C197D098E099F09683E73408B
:1002F00081059105A8F321E0821A9108A108B108AF
:1003000088EEC80E83E0D81EE11CF11C8114910414
:10031000A104B10429F7FF90EF90DF90CF90BF9038
:10032000AF909F908F90089508950895AF92BF92D7
:10033000CF92DF92EF92FF920F931F93CF93DF93B1
:100340006C017B018B01040F151FEB015E01AE18E0
:10035000BF08C017D10759F06991D601ED91FC9102
:100360000190F081E02DC6010995892B79F7C5012F
:10037000DF91CF911F910F91FF90EF90DF90CF9081
:10038000BF90AF900895FC01538D448D252F30E030
:10039000842F90E0821B930B541710F0CF96089592
:1003A00001970895FC01918D828D981761F0A28DBF
:1003B000AE0FBF2FB11D5D968C91928D9F5F9F7385
:1003C000928F90E008958FEF9FEF0895FC01918D3B
:1003D000828D981731F0828DE80FF11D858D90E0A8
:1003E00008958FEF9FEF0895FC01918D228D892F45
:1003F00090E0805C9F4F821B91098F73992708952D
:1004000089EA92E00E94F40121E0892B09F420E0BE
:10041000822F089580E090E0892B29F00E9400024D
:1004200081110C9400000895FC01A48DA80FB92F30
:10043000B11DA35ABF4F2C91848D90E001968F730C
:100440009927848FA689B7892C93A089B1898C912B
:10045000837080648C93938D848D981306C002887A
:10046000F389E02D80818F7D80830895EF92FF9244
:100470000F931F93CF93DF93EC0181E0888F9B8DC7
:100480008C8D98131AC0E889F989808185FF15C081
:100490009FB7F894EE89FF896083E889F9898081A4
:1004A0008370806480839FBF81E090E0DF91CF9173
:1004B0001F910F91FF90EF900895F62E0B8D10E095
:1004C0000F5F1F4F0F731127E02E8C8D8E110CC004
:1004D0000FB607FCFACFE889F989808185FFF5CF4F
:1004E000CE010E941402F1CFEB8DEC0FFD2FF11D18
:1004F000E35AFF4FF0829FB7F8940B8FEA89FB898C
:1005000080818062CFCFCF93DF93EC01888D8823E9
:10051000B9F0AA89BB89E889F9898C9185FD03C066
:10052000808186FD0DC00FB607FCF7CF8C9185FF4B
:10053000F2CF808185FFEDCFCE010E941402E9CF7A
:10054000DF91CF910895089520912102260F33273E
:10055000331F21323105ECF420917F02FC0190E041
:1005600080E0243069F082E00895A0912102219179
:10057000AC014F5F5D4FA40FB52FB11D2C930196B9
:10058000861798F380912102680F6093210280E022
:10059000089581E0089510927F0281E080937E02A9
:1005A0001092590261E082E10E94DE0061E083E185
:1005B0000E94DE00E9EBF0E080818E7F8083808105
:1005C0008D7F808388E48093B80085E48093BC00AD
:1005D0000895CF93DF9391E0909300028823B9F0C0
:1005E000C091B800D091BA008091BC008A7B809302
:1005F000BC0060E082E10E94DE0060E083E10E94D6
:10060000DE000E94CB02D093BA00C093B800DF9105
:10061000CF910895CF92DF92EF92FF920F931F93A5
:10062000CF93DF93D091A80281E0D13208F09CC033
:10063000C091A7020E943D016B017C0180917F0265
:1006400081116CC082E080937F0281E080937E0202
:100650008FEF80937D0210927C02D0937B02A7E8FB
:10066000B2E0EBE5F2E080E0D8138DC010925A02C0
:1006700080915A02CC0FC82BC0935A028091590224
:10068000813009F084C0109259020E943D016B0133
:100690007C0180915A028093BB00809181029091ED
:1006A0008202A0918302B0918402892B8A2B8B2B2A
:1006B000A1F00E943D0100918102109182022091DF
:1006C0008302309184026C197D098E099F090617F7
:1006D00017072807390708F442C08091BC0083FD42
:1006E000D8CF85EC8093BC000E943D016B017C015A
:1006F00080917F02823009F44CC080917D028F3F4F
:1007000009F469C080917D02803209F466C080914D
:100710007D02803309F463C084E026C080918102A9
:1007200090918202A0918302B0918402892B8A2B3E
:100730008B2B09F483CF0E943D010091810210911F
:10074000820220918302309184026C197D098E0906
:100750009F09061717072807390708F06FCF809100
:1007600080020E94E90285E0109286021092A8029F
:1007700010928502DF91CF911F910F91FF90EF9022
:10078000DF90CF9008959D9191938F5F6DCF85EE0F
:10079000A9CF8091810290918202A0918302B091B1
:1007A0008402892B8A2B8B2B09F4A2CF0E943D0156
:1007B0000091810210918202209183023091840283
:1007C0006C197D098E099F09061717072807390735
:1007D00008F08ECFC4CF80E0C7CF82E0C5CF83E0E2
:1007E000C3CF0895E091490280914802E81730F4A0
:1007F000F0E0E052FE4F808190E008958FEF9FEF90
:10080000089590914902809148022FEF3FEF981789
:1008100048F4E92FF0E0E052FE4F208130E09F5F86
:1008200090934902C901089580914802909149022C
:10083000891B990B0895CF92DF92EF92FF920F934D
:100840001F93CF93DF937C01CB018A012091850216
:10085000222389F0EB016B01C40ED51ECC15DD05FA
:1008600069F06991D701ED91FC910190F081E02D43
:10087000C7010995F3CF642F0E94A402C801DF913C
:10088000CF911F910F91FF90EF90DF90CF9008953F
:10089000CF93DF931F92CDB7DEB769832091850296
:1008A0002223F9F02091A802203258F021E030E014
:1008B000FC013383228390E080E00F90DF91CF91A1
:1008C000089580918602E82FF0E0E957FD4F998165
:1008D00090838F5F809386028093A80281E090E0EE
:1008E000ECCF61E0CE0101960E94A402F7CF682F01
:1008F00086E493E00C94480490E080E008951F9310
:10090000CF93DF93EC01162F81E08093850280E581
:100910008093A702109286021092A8028D2F9D2F1D
:10092000990F990B0E947704CE0199270E947704B2
:10093000612F86E493E00E9448040E940A0365E068
:1009400070E080E090E0DF91CF911F910C94620104
:10095000CF93DF93EC0160E08E810E94DE0061E0C6
:100960008E810E94DE0060E08E810E94DE008BE8B6
:1009700091E00197F1F7DF91CF910895CF92DF9247
:10098000EF92FF920F931F93CF93DF936C017C0143
:1009900087E0E80EF11CD0E0C0E0062F10E0B801BF
:1009A0000C2E02C0759567950A94E2F76170F70105
:1009B00081917F010E94DE002196C430D10579F734
:1009C000C601DF91CF911F910F91FF90EF90DF90C3
:1009D000CF900C94A804CF92DF92EF92FF920F93E6
:1009E0001F93CF93DF93EC01F62E642F8C810E942E
:1009F000DE008D818F3F19F060E00E94DE000F2D38
:100A000010E08F8584FF25C06E0187E0C80ED11CE1
:100A1000F12CE12CB8010E2C02C0759567950A9453
:100A2000E2F76170F60181916F010E94DE00FFEF35
:100A3000EF1AFF0A88E0E816F10461F7CE01DF91B2
:100A4000CF911F910F91FF90EF90DF90CF900C947A
:100A5000A804B80184E0759567958A95E1F7CE0101
:100A60000E94BE046F2DCE01DF91CF911F910F9197
:100A7000FF90EF90DF90CF900C94BE0440E0682F81
:100A800082E593E00C94EB0481E00E943E058BE349
:100A90009FE10197F1F70895CF93DF93613029F03B
:100AA0009091610398609093610360936503109245
:100AB000660390E49093670380936803805C80935F
:100AC000690361E0809156030E940C0180915703F5
:100AD0008F3F19F061E00E940C0161E080915803A2
:100AE0000E940C01C2E5D3E09E0122553340809163
:100AF000610384FD0BC084E090E02196281739073C
:100B000044F461E08E810E940C01EECF88E090E019
:100B1000F4CF8BE39DE00197F1F760E080915603FD
:100B20000E94DE0060E0809158030E94DE00809108
:100B300057038F3F19F060E00E94DE00809161034F
:100B400084FD34C063E082E593E00E94BE04CBE400
:100B5000D6E4CE010197F1F763E082E593E00E94CD
:100B6000BE042197F1F763E082E593E00E94BE04A2
:100B700083E592E00197F1F762E082E593E00E945D
:100B8000BE048091610380620E943E0584E08093F0
:100B900062038CE00E943E050E94440582E080933F
:100BA000630386E0DF91CF910C943E0580620E9442
:100BB0003E058BE496E40197F1F780916103806232
:100BC0000E943E0583E592E00197F1F78091610371
:100BD00080620E943E05D5CF90916503891710F081
:100BE0008FEF890FE82FF0E0EE5AFC4F8489806880
:100BF0000C943E0541E00E94EB0481E090E00895F2
:100C0000FB0101900020E9F73197AF01461B570B1C
:100C1000DC01ED91FC910280F381E02D09944F926B
:100C20005F926F927F928F929F92AF92BF92CF927C
:100C3000DF92EF92FF920F931F93CF93DF93CDB785
:100C4000DEB7A1970FB6F894DEBF0FBECDBF8C0103
:100C50006B01770FEE08FF08F7FE49C0DC01ED914C
:100C6000FC910190F081E02D6DE209955C01222755
:100C70003327A9012C193D094E095F0919A2FE016C
:100C8000B1967F019AE0492E512C612C712CCA013A
:100C9000B901A30192010E94F60A605DD7016E932B
:100CA0007D01211531054105510589F790E080E06E
:100CB000109721F0BD01C8010E9400068A0D9B1DFE
:100CC000A1960FB6F894DEBF0FBECDBFDF91CF91D6
:100CD0001F910F91FF90EF90DF90CF90BF90AF905A
:100CE0009F908F907F906F905F904F900895A70195
:100CF000960119A2FE01B1967F018AE0882E912CFF
:100D0000A12CB12CCA01B901A50194010E94F60AD7
:100D1000605DD7016E937D012115310541055105B7
:100D200089F790E080E0109759F2BD01C8010E9458
:100D30000006C6CFCF93DF93BC0189EA92E00E9400
:100D40000F06EC0160E371E089EA92E00E94000680
:100D50008C0F9D1FDF91CF9108950C94000685EDB7
:100D60008093BC008091810290918202A0918302C5
:100D7000B09184020796A11DB11D23E0B695A795F9
:100D8000979587952A95D1F72091BC0024FD03C043
:100D900010927F02089540918102509182026091E9
:100DA000830270918402452B462B472B69F30097F1
:100DB000A105B10541F02AE22A95F1F700C001979B
:100DC000A109B109E1CF809180020C94E9021F9240
:100DD0000F920FB60F9211242F933F938F939F93EF
:100DE000AF93BF938091510290915202A091530210
:100DF000B09154023091500223E0230F2D3758F563
:100E00000196A11DB11D2093500280935102909331
:100E10005202A0935302B0935402809155029091D4
:100E20005602A0915702B09158020196A11DB11D22
:100E30008093550290935602A0935702B0935802A4
:100E4000BF91AF919F918F913F912F910F900FBEC6
:100E50000F901F90189526E8230F0296A11DB11D33
:100E6000D2CF1F920F920FB60F9211242F933F9360
:100E70004F935F936F937F938F939F93AF93BF93A2
:100E8000EF93FF9389EA92E00E941402FF91EF91A1
:100E9000BF91AF919F918F917F916F915F914F9192
:100EA0003F912F910F900FBE0F901F9018951F929A
:100EB0000F920FB60F9211242F938F939F93EF935E
:100EC000FF93E091B902F091BA028081E091BF02F4
:100ED000F091C00282FD1BC090818091C2028F5FA1
:100EE0008F732091C302821741F0E091C202F0E0BB
:100EF000E755FD4F958F8093C202FF91EF919F912F
:100F00008F912F910F900FBE0F901F901895808199
:100F1000F4CF1F920F920FB60F9211242F933F938D
:100F20004F935F936F937F938F939F93AF93BF93F1
:100F3000EF93FF938091B900887F803609F44AC00F
:100F4000F0F5883209F4A7C018F5803109F49BC088
:100F5000B8F4882309F4F9C0883009F494C0FF91EB
:100F6000EF91BF91AF919F918F917F916F915F9121
:100F70004F913F912F910F900FBE0F901F9018959A
:100F8000883109F488C0803251F780937D0214C003
:100F9000803409F49DC040F48033B9F38833F9F606
:100FA00080937D0285ECB0C0803509F485C088351A
:100FB00009F496C0883499F60E94AF06D0CF8839DC
:100FC00009F48CC038F5883729F050F4883611F0D0
:100FD000803729F683E080937F021092430257C046
:100FE000883809F47BC0803919F0803809F0B7CF10
:100FF00080914302803208F071C0E091430281E0A9
:101000008E0F809343028091BB00F0E0ED5DFD4FB9
:1010100080833DC0803B39F0E0F4803A09F479C028
:10102000883A09F09CCF84E080937F0210922202DC
:1010300010922102E0914602F091470209958091B9
:10104000210281110FC081E08093210210920102E0
:1010500009C0803C09F4A6CF883C09F4A3CF883BA3
:1010600009F07DCFE091220281E08E0F8093220271
:10107000F0E0EF5FFD4F80818093BB0090912202F2
:101080008091210229C080915A028093BB0085EC97
:101090008093BC0064CF90917C0280917B02981772
:1010A00058F5E0917C0281E08E0F80937C02F0E0A5
:1010B000E55AFD4F8081E9CFE0917C0281E08E0FFF
:1010C00080937C028091BB00F0E0E55AFD4F808365
:1010D00090917C0280917B029817C8F285E8D8CF66
:1010E000E0917C0281E08E0F80937C028091BB00B6
:1010F000F0E0E55AFD4F808380917E0281115CCF44
:1011000081E08093590284EA8093BC0010927F02B0
:1011100026CF85EC8093BC0010927F028091430221
:10112000803230F4E0914302F0E0ED5DFD4F10823B
:101130006091430270E0E0914402F091450283E245
:1011400092E00995109243020ACF10927D0234CFAB
:10115000E9EAF2E01382128288EE93E0A0E0B0E0C8
:1011600084839583A683B78324E031E03183208391
:1011700025EC30E03587248724EC30E0378726875C
:1011800020EC30E0318B208B21EC30E0338B228B54
:1011900022EC30E0358B248B26EC30E0378B268B2D
:1011A000118E128E138E148EE6E4F3E013821282F7
:1011B00084839583A683B78386E191E091838083BE
:1011C000E2E5F3E01382128288E291E0918380836A
:1011D00084E084838FEF858385E0868386E0878340
:1011E00087E0808788E0818789E08287138614867C
:1011F00015861686178661E080E10C944C0578947C
:1012000084B5826084BD84B5816084BD85B582600B
:1012100085BD85B5816085BD80916E0081608093BC
:101220006E00109281008091810082608093810025
:101230008091810081608093810080918000816035
:10124000809380008091B10084608093B100809190
:10125000B00081608093B00080917A0084608093B8
:101260007A0080917A00826080937A0080917A007F
:10127000816080937A0080917A00806880937A0000
:101280001092C100109249021092480210928602F8
:101290001092A8020E94CB0284E991E09093470249
:1012A0008093460285E991E0909345028093440241
:1012B000E091B902F091BA0282E08083E091B50238
:1012C000F091B6021082E091B702F091B8028FEC73
:1012D00080831092C102E091BD02F091BE0286E0CF
:1012E0008083E091BB02F091BC02808180618083A9
:1012F000E091BB02F091BC02808188608083E09124
:10130000BB02F091BC02808180688083E091BB02C7
:10131000F091BC0280818F7D808360E082E00E943A
:101320000C0160E083E00E940C0160E08AE00E9412
:101330000C0164E084E10E944C0563E371E082E506
:1013400093E00E94AD0681E00E94EC0565E471E047
:1013500082E593E00E94AD060E944405D0E0C0E023
:101360006FEFCE010E947F042196C432D105C1F7F0
:101370000AE010E080E0E82E80E0F82E8AE00E948B
:10138000B500EC01892BE1F401E010E50093850242
:101390001093A702109286021092A8028D2F9D2F03
:1013A000990F990B0E947704CE0199270E94770428
:1013B0008FEF90E00E9477040E940A032196E6CF07
:1013C00082E00E94B500892B49F080914E029091F5
:1013D0004F02019690934F0280934E0283E00E9449
:1013E000B500892B49F080914C0290914D020196F5
:1013F00090934D0280934C0280914E0290914F0247
:1014000020914C0230914D02820F931F90934B021A
:1014100080934A020E94440582E00E94EC0564E544
:1014200071E082E593E00E94AD0660914C027091FC
:101430004D0282E593E00E940F0683E00E94EC05D6
:1014400064E671E082E593E00E94AD0660914E0291
:1014500070914F0282E593E00E940F0680E00E94A7
:10146000EC0565E771E082E593E00E94AD066091CE
:101470004A0270914B0282E593E00E940F0681E0E0
:101480000E94EC0560914A0270914B0282E593E064
:101490000E940F0680914A0290914B02C0E01816FC
:1014A000190624F5B8010E94E20A5B01D82F992E93
:1014B000CC2ED12C682FC6010E947F0467E871E012
:1014C00089EA92E00E94AD06B60189EA92E00E94A4
:1014D0000F0664EA71E089EA92E00E94AD068D2F62
:1014E000992D0E949A06CF5FC501D9CF80914E02F7
:1014F00090914F02D12C181619062CF5B8010E94B4
:10150000E20A5B01C82E992ECD2DD0E02C96682FD3
:10151000CE010E947F0469EA71E089EA92E00E94AC
:10152000AD06BE0189EA92E00E940F0664EA71E00E
:1015300089EA92E00E94AD068C2D992D0E949A06B0
:10154000D394C501D8CF80914C0290914D02D12CFB
:10155000181619062CF5B8010E94E20A5B01C82E84
:10156000992ECD2DD0E06896682FCE010E947F0481
:1015700064EC71E089EA92E00E94AD06BE0189EA5E
:1015800092E00E940F0664EA71E089EA92E00E940C
:10159000AD068C2D992D0E949A06D394C501D8CF03
:1015A00064EF71E080E090E00E946201E114F104D8
:1015B00009F4E4CE0E940002882309F4DFCE0E94E1
:1015C0000000DCCE97FB072E16F4009407D077FDC1
:1015D00009D00E94180B07FC05D03EF49095819528
:1015E0009F4F0895709561957F4F0895A1E21A2E3F
:1015F000AA1BBB1BFD010DC0AA1FBB1FEE1FFF1FB7
:10160000A217B307E407F50720F0A21BB30BE40B06
:10161000F50B661F771F881F991F1A9469F760954D
:101620007095809590959B01AC01BD01CF01089507
:10163000AA1BBB1B51E107C0AA1FBB1FA617B707F8
:1016400010F0A61BB70B881F991F5A95A9F7809514
:101650009095BC01CD010895EE0FFF1F0590F49108
:08166000E02D0994F894FFCF7E
:101668000000000036029601C3018302F401D20192
:10167800E6010000000048041B047C04F103140484
:101688000104F20300000000FA0596017C04A3029D
:101698000D0A00576F726B696E67206F66204545AB
:1016A80050524F4D00427920536169204B72697343
:1016B800686E61004241442050726F6475637473B0
:1016C800203A2000474F4F442050726F647563746E
:1016D80073203A2000544F54414C2050524F4455E7
:1016E800435453203A2000205772697474656E2061
:1016F800546F74616C2050726F64756374732061E9
:10170800743A200020697320002057726974746548
:101718006E20476F6F642050726F64756374732016
:1017280061743A00205772697474656E204261646E
:101738002050726F64756374732061743A200000DE
:00000001FF
